:020000040800F2
:10000000000003205D060008F5210008F721000824
:10001000F9210008FB210008FD2100080000000074
:1000200000000000000000000000000091700008C7
:10003000FF2100080000000021710008B1690008DC
:10004000AD060008AD060008AD060008AD060008C4
:10005000AD060008AD060008AD060008AD060008B4
:10006000AD060008AD060008AD060008AD060008A4
:10007000AD060008AD060008AD060008AD06000894
:10008000AD060008AD060008AD060008AD06000884
:10009000AD060008AD060008AD060008AD06000874
:1000A000AD060008AD060008AD060008AD06000864
:1000B000AD060008AD060008AD060008AD06000854
:1000C000AD060008AD060008AD060008AD06000844
:1000D000AD060008AD060008AD060008AD06000834
:1000E000AD060008AD060008AD060008AD06000824
:1000F000AD060008AD060008AD060008AD06000814
:10010000AD060008AD060008AD060008AD06000803
:10011000AD060008AD06000801220008AD06000883
:10012000AD060008AD060008AD060008AD060008E3
:10013000AD060008AD060008AD060008AD060008D3
:10014000AD060008AD060008AD060008AD060008C3
:10015000AD060008AD060008AD060008AD060008B3
:10016000AD060008AD060008AD060008AD060008A3
:10017000AD060008AD060008AD060008000000004E
:10018000AD060008AD060008AD060008AD06000883
:10019000AD060008AD060008AD060008AD06000873
:0C01A0000D220008AD060008192200081E
:1001B00010B5054C237833B9044B13B10448AFF3A1
:1001C00000800123237010BD800300200000000088
:1001D000E038020808B5034B1BB103490348AFF3ED
:1001E000008008BD0000000084030020E038020801
:1001F00001F0FF01102A2BDB10F0070F08D010F8D8
:10020000013B013A8B422DD010F0070F42B3F6D1DB
:10021000F0B441EA012141EA014122F007047FF0F4
:1002200000070023F0E80256083C85EA010586EA4B
:10023000010685FA47F5A3FA87F586FA47F6A5FA87
:1002400087F68EB9EED1F0BC01F0FF0102F0070293
:1002500032B110F8013B013A83EA010313B1F8D13E
:100260000020704701387047002D06BF354603381F
:10027000073815F0010F07D1013015F4807F02BF58
:10028000013015F4C03F0130F0BC0138704700BFA9
:100290007BB972B90029BEBF00204FF0004106E0D3
:1002A00008BF00281CBF6FF000414FF0FF3000F086
:1002B000D3B9ADF1080C6DE904CE002909DB002BA0
:1002C0001ADB00F04DF8DDF804E0DDE9022304B0AC
:1002D0007047404261EB4101002B1BDB00F040F80E
:1002E000DDF804E0DDE9022304B0404261EB4101A6
:1002F000524263EB43037047524263EB430300F007
:100300002FF8DDF804E0DDE9022304B0404261EBA0
:1003100041017047524263EB430300F021F8DDF8DE
:1003200004E0DDE9022304B0524263EB430370476B
:1003300053B94AB9002908BF00281CBF4FF0FF314C
:100340004FF0FF3000F088B9ADF1080C6DE904CE34
:1003500000F006F8DDF804E0DDE9022304B07047A0
:100360002DE9F047089D8E4604468846002B4AD169
:100370008A42174662D9B2FA82F64EB1C6F120031C
:1003800001FA06F820FA03F3B74043EA0808B4403C
:100390004FEA174E1FFA87FCB8FBFEF1230C0EFB49
:1003A000118843EA084301FB0CF29A4209D9FB1871
:1003B00001F1FF3080F0EA809A4240F2E780023992
:1003C0003B449A1AA3B2B2FBFEF00EFB102243EAA2
:1003D000024300FB0CFC9C4509D9FB1800F1FF32DD
:1003E00080F0D6809C4540F2D3803B44023840EAFE
:1003F0000140A3EB0C0300211DB1F3400022C5E92D
:100400000032BDE8F0878B4205D90DB1C5E9000186
:1004100000210846F5E7B3FA83F1002946D1734578
:1004200002D3824200F20581841A6EEB030201209E
:100430009046002DE5D0C5E90048E2E7002A00F02B
:100440009080B2FA82F6002E40F0A4808A1A030C43
:100450004FEA174E80B2BCB20121B2FBFEFC0EFB8C
:100460001C2243EA024304FB0CF29A4207D9FB1810
:100470000CF1FF3802D29A4200F2E080C4469B1A87
:10048000B3FBFEF20EFB123340EA034302FB04F41B
:100490009C4207D9FB1802F1FF3002D29C4200F2C5
:1004A000CA8002461B1B42EA0C40A5E7C1F12006A8
:1004B0008B4022FA06F71F430EFA01F420FA06F3E6
:1004C0002EFA06FE4FEA1749234300FA01F81FFAF5
:1004D00087FCBEFBF9F01C0C09FB10EE44EA0E444D
:1004E00000FB0CFEA64502FA01F209D93C1900F105
:1004F000FF3A80F09C80A64540F2998002383C4447
:10050000A4EB0E041FFA83FEB4FBF9F309FB1344BA
:100510004EEA044403FB0CFCA44508D93C1903F142
:10052000FF3E80F08280A4457FD9023B3C4443EAF1
:100530000040A4EB0C04A0FB02EC64457346E146CA
:1005400062D35FD05DB1B8EB030264EB090404FA37
:1005500006F622FA01F31E43CC40C5E900640021EF
:100560004FE7B1FBF2FC010C41EA0E4180B240EAD8
:1005700001423B4638463C46B846BE462026B1FBC3
:10058000F7F1A2EB080241EA0C4166E7014618E7E1
:1005900010462CE7C6F120022EFA02F3B740B14014
:1005A00020FA02F24FEA174E0A43B3FBFEF8BCB240
:1005B0000EFB1833110C41EA034108FB04F9B0406B
:1005C00089454FEA104380B23ED9791808F1FF3CC3
:1005D00001D289451FD8A1EB0901B1FBFEF909FB46
:1005E00004F80EFB191192B242EA0142424529D2A7
:1005F000BA1809F1FF31C4D24245C2D2A9F10201B1
:100600003A44BEE7F0459DD2BEEB02036CEB070C0B
:100610000138E14696E7A7EB09094944A8F1020C25
:10062000B1FBFEF909FB04F8DBE773467FE75046B0
:1006300066E70846FDE63B44023A33E7ACF1020CBC
:100640003B441CE749469CE7A1EB0901C446B1FBCA
:10065000FEF909FB04F8C4E7704700BFDFF834D0A7
:10066000002103E00C4B5B58435004310B480C4B0A
:1006700042189A42F6D30B4A02E0002342F8043BA8
:10068000094B9A42F9D303F039FF22F0BBFB01F08A
:1006900061F8704700000320BC52060800000020EB
:1006A0006401002080030020F8370120FEE7704736
:1006B00008B500F0B9FDBDE8084000F03DBD00F010
:1006C000B5BD704710B50421044621F0AFF92046AE
:1006D00010BD000038B50C4B0C4C18800C4B822020
:1006E00019806368984740F6110398420AD1094D72
:1006F00023682C60822098472B688220DB6898470B
:10070000002038BD0120FCE7A60300204C0000209B
:10071000A4030020A80300204FF4A071F020FFF7ED
:10072000D9BF0000F7B5394D2B6804461B698220FC
:100730009847208000284ED02B680DF106025B6997
:1007400001A982209847324B1B78002B4BD0BDF873
:10075000062040F674639A423FD9ADF80630BDF8E2
:1007600006209B1A9BB20A2B42D90B22B3FBF2F351
:10077000284A1288934201D9013A93B2BDF8042065
:10078000254840F6B8318A4234D8C2F571620E323B
:10079000016892B20F25B2FBF5F2204D2D88AA42D6
:1007A00084BF05F1FF35AAB28A4215468EB22AD916
:1007B000921B91B21A4E3768BB42BAB28CBF9A1ADA
:1007C000D21A92B211440529C4BF05603360036890
:1007D00063803368A38003B0F0BDB32A9CBFB4220A
:1007E000ADF80620BBE7BDF80630A3F5B473B9E752
:1007F0000023C3E7C2F56D62083292B20E2A016887
:10080000C8D800252A46891A89B2D3E7A803002050
:10081000781A0020A4030020A0030020A6030020D3
:100820009C03002037B568460D461446FFF77AFF53
:10083000BDF8000030B1BDF802302B60BDF80430C7
:100840002360012003B030BD032821D8DFE800F089
:10085000020B12190F4B1A68B2FA82F252090421E4
:100860000D4804F0DFB80B4B5A68B2FA82F2520915
:100870000821F5E7074B9A68B2FA82F25209102173
:10088000EEE7044BDA68B2FA82F252092021E7E778
:10089000704700BFAC03002000100240032821D89D
:1008A000DFE800F0020B12190F4B1A68003A18BF6C
:1008B000012204210D4804F0B5B80B4B5A68003AE8
:1008C00018BF01220821F5E7074B9A68003A18BFC4
:1008D00001221021EEE7044BDA68003A18BF01222A
:1008E0002021E7E7704700BFAC0300200010024062
:1008F00003280DD8DFE800F00206080A04210548A5
:1009000004F095B80821FAE71021F8E72021F6E76E
:10091000704700BF0010024008B5032811D8DFE877
:1009200000F0020A0C0E0421074804F075F8431E7B
:100930005842584108BD0821F6E71021F4E720216C
:10094000F2E70020F3E700BF0010024070B5084D49
:1009500000240126E0B2FFF7DFFF18B12B68012B5E
:1009600018BF2E600134052C05F10405F2D170BDCD
:10097000AC030020012380F8781080F879307047AC
:100980007047002070470000034B4164003918BFD6
:1009900001211970704700BFB72A0120704700205D
:1009A0007047836B0BB10846184770474FF6FF70CE
:1009B0007047406803689B691847704770477047E5
:1009C0007047704710B5044600F046FD23680349A0
:1009D000D3F890302046BDE810401847000000D002
:1009E00008B503680446D3F8843098472368204646
:1009F000DB6F984700F0ECF8236820465B6F984760
:100A0000292001F017F900F0E3F8236820465B6F16
:100A10009847F8E710B5044609F030F923682046F6
:100A2000D3F8BC30BDE81040184700F0F9BC00F026
:100A3000FDBC00F02FBD00F0CFBC00F03FBD00F0CA
:100A400047BD00F0D3BC08F047BB10B58421044675
:100A500020F0ECFF204610BD10B590F8341090F84F
:100A600078400C4B8C421A7809D03AB90A4A0B49A3
:100A70001488088810800C8001221A7010BD002A8A
:100A8000FCD0054A05491488088810800C80002293
:100A9000F3E700BFB02A0120AC2A0120AE2A0120D2
:100AA00070B50D46194635B9094B0A4A0A4840F255
:100AB000FF2121F0F7FEC0E90F52084B003A18BFA2
:100AC00001221A700368BDE87040D3F890301847CF
:100AD0005039020888390208D6390208B62A01209E
:100AE00008B5094B1B888B4203D8084B1B889342DF
:100AF00005D9074B074A0848A32121F0D3FE074B2D
:100B00001980074B1A8008BDAC2A0120AE2A0120AB
:100B10001B3A02087E3A0208D6390208B22A01209E
:100B2000B42A0120034690F87A0018B15868036887
:100B30001B68184770470000012108B500220846CD
:100B400005F0C0FF0A4B186028B90A4B0A4A282151
:100B50000A4821F0A7FE00220421012006F051F8E6
:100B6000074B186018B9074B034A2C21F0E708BD62
:100B7000C0030020C13A02080A3B0208393B0208C0
:100B8000BC030020863B0208024B4FF0FF3118687F
:100B900005F0E2BFC0030020014B186806F008B85A
:100BA000C0030020024B0021186805F0D5BF00BF2C
:100BB000C0030020FFF7F0BF03480449006800238A
:100BC0001A4606F059B800BFBC03002004000020FC
:100BD00013B5084C00231A4601A9206806F07DF8D9
:100BE00020684FF0FF33002201A906F076F802B02A
:100BF00010BD00BFBC03002003685B6C18470120D8
:100C0000704703689B6A1847FEE740F2EF30704771
:100C1000054B0360054B4FF08062C3F88820BFF39B
:100C20004F8FBFF36F8F70477447020800E100E0F9
:100C300010B504464FF45A61FFF7EAFF204620F052
:100C4000F5FE204610BD000082B0002301930E4B3C
:100C50001A6B42F400021A631A6B02F4000201924A
:100C6000019A1A6942F400021A611A6922F4000218
:100C70001A61064B064A1A61064A5A61064B4FF042
:100C800080629A6002B07047003802400C1C00205D
:100C9000E90E0008090C000800E100E008B50A2888
:100CA00009D8DFE800F006100E0808080810101038
:100CB0001000022008BD054B054A0648902121F08E
:100CC000F1FD0020F6E70120F4E700BFC83B020871
:100CD000E33B02082E3C020838B50C46887FFFF73C
:100CE000DDFFA58AE28A164B2169586342EA054274
:100CF0005A64628BD963521B1A642568082D0ED181
:100D00009A611A615862207F0E4A42EA0062DA61F3
:100D1000E2681A620C4A5961D9601A6038BD002233
:100D2000D8611A61E1680A0A480902F4784200F4BD
:100D3000FC600243C1F3C4010A439A63034AECE72F
:100D400000B002400900010001230200012303005A
:100D500008B50B280BD8DFE800F00612100A0A0AC3
:100D60000A0808080808022008BD0520FCE7054B12
:100D7000054A06486F2121F095FD0020F4E7012087
:100D8000F2E700BFC83B0208793C02082E3C02088B
:100D90002DE9F04191F81D800C464046FFF7D8FF41
:100DA000A77F05463846FFF7D3FF06463846FFF7CC
:100DB00075FFA18A628B444B521A1A649A61228B86
:100DC000521A1A61E28A586342EA01425A6421695E
:100DD0006268D963DA602068802828D0227F0FD823
:100DE000202867D0402865D004281AD0364B45EA21
:100DF000026545F40035B845DD6161D0334A44E011
:100E0000B0F5807F04D0B0F5007FEFD1304800E02E
:100E1000304840EA0262DA61E2681A625E62596151
:100E200032E045EA026242F40032DA61F6E7A06895
:100E3000021DDA62227F45EA026545F40035DD6174
:100E40005E625961017841B1012921D0224B234AC8
:100E500023484FF48D7121F025FDDA69418822F491
:100E60007F42013922F0100242EA0122DA610121B7
:100E7000154BDA6942F02002DA61DA699206FCD495
:100E800010229A600029B9D0164A1A60BDE8F08194
:100E9000B2F1FF01DA69408822F47F4200F1FF30AD
:100EA00022F0100242EA002242F0100218BF012193
:100EB000DA61DDE745EA0262034B42F40032B4E74F
:100EC00042F20132E1E700BF00B00240012301001D
:100ED000090002000A000200C33C0208DD3C0208CF
:100EE0002E3C020801230200024B1B68586803686D
:100EF0005B691847B82A012070B5044625460A4B9D
:100F00000C30002660602672667245F8203B602235
:100F1000294609F009F804F55A63EE6024359D422C
:100F2000FBD1204670BD00BF74470208034B1A680E
:100F3000D207FCD423229A60704700BF00B0024061
:100F40007047000030B50F4C2568ED07FCD4232511
:100F50000904A56041F001010225FF2B656361646E
:100F6000E0630AD00849656241EA0363E361074B25
:100F700022626061E060236030BDE561039BA36392
:100F8000034BF8E700B00240090001000100020035
:100F90000100030030B50E4C2568ED07FCD4232575
:100FA0001204A56042F001020225FF2B6563626412
:100FB000E063E16008D01B0643F00213E361054BD8
:100FC00065626061236030BD034BE3610123F9E793
:100FD00000B0024001000200020002FF30B50B4CDD
:100FE0002568ED07FCD4232512041B06A56043F4F5
:100FF0000033022542F0010265636264E063E16050
:10100000E361034B65626061236030BD00B0024064
:1010100001000200012070474020704700EB811062
:101020000830704700EB811008307047012070478E
:101030004FF4A76070474FF4A76303FB010008302B
:1010400070474FF4A76303FB01000830704701208D
:1010500070471020704700EB01100830704700EB1C
:10106000011008307047084601F044BD10B5034B2D
:101070000360044607F087FD204610BD2C48020897
:1010800010B50446FFF7F2FF2046482120F0CEFCC1
:10109000204610BD10B5034B0360044607F073FDF6
:1010A000204610BDF847020810B50446FFF7F2FFCE
:1010B00020464FF4A86120F0B9FC204610BD000086
:1010C00010B5034B0360044607F05DFD204610BDDC
:1010D000C447020810B50446FFF7F2FF2046182166
:1010E00020F0A4FC204610BD10B5084B0360044658
:1010F00000F26C50FFF7BAFF04F12C00FFF7CAFFB3
:1011000004F11400FFF7DCFF204610BD6048020820
:1011100008B50248FFF7E8FF08BD00BF9C12002099
:1011200010B50446FFF7E0FF204640F2147120F0AE
:101130007DFC204610BD00002DE9F34101F0E6F8EA
:10114000054601F0E7F800240146234628462246DA
:10115000009411F0B9FB274B274A1A60204602F091
:101160002DFE264D264B274A27489A6011F014FB86
:101170002B68BFF35B8FDB0735D4284620F058FC83
:1011800088B3224C224B236004F5B76604F11400A7
:1011900004F12C0804F26C576060C4F80880E76022
:1011A000266107F0F1FC1B4B6361404607F0ECFC45
:1011B000194BE362384607F0E7FC184BC4F86C356E
:1011C00004F2B45002F0BAFE224604F2B4513046A2
:1011D00002F06EFE304601F08DFC114821F080FBDC
:1011E000284620F031FC0F4802B0BDE8F041FFF77F
:1011F000E9BB00BF1C2B01204804002098120020EE
:10120000680400204C040020080000209C120020EC
:1012100060480208C4470208F84702082C48020840
:1012200011110008C4030020704700000148FFF7B7
:10123000D7BB00BFC403002070B5264E264C274DF7
:10124000274B23603046FFF757FE284616F042FC36
:1012500024480FF071FB244B2448DC6000224FF43B
:101260008071C3E9121222491A86C3E91A12214970
:1012700083F85820C3E91E011F49C3F880101F4995
:101280001F480B60F021C3E90422C3E90622C3E929
:101290000822C3E90A22C3E90E22C3E91022C3E9E6
:1012A0001422C3E917225A6683F870205A67C3E9EB
:1012B000016501801348018013484FF4A07101803B
:1012C0001248018012490A70012283F83420114A21
:1012D0001A6070BDF40400209412002068040020FD
:1012E000403902084C040020C40300200000010122
:1012F00001000001000450001A001400B82A012067
:10130000AC2A0120B22A0120AE2A0120B42A0120F1
:10131000B02A0120884602080148FFF779BC00BFC7
:10132000F40400200020704781807047C18070471E
:10133000018170474181704770477047704770471F
:10134000704710B4C4880368121B84885B6D091B46
:1013500012B25DF8044B09B218474FF6FF73838150
:101360004FF0FF3303621368C361106070470020C1
:1013700070478B88838001207047704780F8261063
:10138000704790F82600704710B50022B1F9084068
:10139000B1F90A10028042808480C18010BD002211
:1013A000028042808280C28070470177704780ED62
:1013B000080A704780F82410704780F8251070479D
:1013C00001207047983070478C30704784307047E8
:1013D0007047704770470000034B902283F85A23F0
:1013E00083F85823704700BF00E100E0094A0A492A
:1013F000D3680A48C3F30A03013B9BB20B8011690F
:10140000C1F30A01013901801364536B43F00103F6
:101410005363704700680140B2190020B0190020E2
:10142000014BD3F8AC00704700680140024B012229
:10143000C3F8AC105A6270470068014010B52C2107
:10144000044620F0F3FA204610BD10B5BC21044636
:1014500020F0ECFA204610BD70B5044607F091FE6E
:1014600023689D6E0DF08EFF01462046A847236835
:10147000054AD3F88C502046AC460023BDE87040A6
:10148000A2F51631604700BF00B004D007F060BE7F
:1014900007F06ABE07F026BE07F095BF90F825203A
:1014A00012B103685B691847704790F825201AB19C
:1014B00090F8242002B1186070470000034B4FF0F1
:1014C00080629A604FF080729A60704700E100E09D
:1014D000084B4FF08062C3F88820BFF34F8FBFF3F3
:1014E0006F8F4FF08072C3F88820BFF34F8FBFF328
:1014F0006F8F704700E100E070B50023124E8380CB
:10150000124B0360336893F8582005460AB1D86C33
:1015100000B998680368DB6A98473368B0FA80F4CA
:10152000D86C640930B10368DB6A9847002808BFAB
:1015300044F001042CB9064B064A07482C2121F03F
:10154000B1F9284670BD00BFB82A012074480208CE
:101550001B3D0208793D0208B23D020870B5254ED8
:101560003568BFF35B8F15F0010540D1304620F0A0
:101570005FFA00283BD0204C204B256104F1340059
:10158000C4E90035C4E90255E584A562A5850FF0DC
:10159000B8FC04F158000AF07BF9194BA36520460A
:1015A000184B40F8843BFFF7A7FF174BC4F8843073
:1015B0002433C4F88C304FF4C803C4E92835002321
:1015C000C4F8AC30C4F8B030C4F8B430C4F8B830A3
:1015D0000E480F4BC4F89050C4F89C50C4F8A85063
:1015E000C4F8983021F07CF9304620F02DFA0248FA
:1015F00070BD00BFB4190020B8190020F0530208D4
:10160000944802080C490208A4530208D5130008A4
:101610008453020838B5184C23685BB3174B184A3B
:101620001B6C11888B4216D1164B198803F0E4FF0E
:10163000236893F86A200025013283F86A2083F832
:101640007C50FFF7B9FA206808F018FB2846BDE87F
:101650003840FFF7F9B803F0CFFF2468236820462D
:101660001B6A9847012384F87C300020BDE838408D
:10167000FFF714B938BD00BFB82A01200068014047
:10168000B2190020B019002007B5064BADF80600CE
:101690001B68054801220DF1060104F04DFD03B061
:1016A0005DF804FB0C000020B81A002008B5642087
:1016B00005F0FCF9FBE7000030B595B010220021E1
:1016C0000AA821F0F6FA1422002103A821F0F1FA69
:1016D00000241E4B01941A6C42F080521A641B6C59
:1016E00003F080530193019B194B02941A6842F452
:1016F00040421A601B6803F4404302930122029B9C
:101700004FF48033CDE9082302254FF480030821EC
:10171000CDE90E534FF4B473CDE9101308A8042398
:101720001393129503F0C0FF03F084FF0F23CDE95C
:1017300003354FF4A0504FF48053CDE90603052143
:1017400003A8059404F08CF915B030BD00380240B0
:101750000070004080B59AB002F0DEFEFFF7ACFFEB
:10176000142200210DA821F0A4FA0024C74B0094F4
:101770001A6BC748C74DDFF8588342F010021A634E
:101780001A6B02F010020092009A01941A6B42F058
:1017900020021A631A6B02F020020192019A02944D
:1017A0001A6B42F080021A631A6B02F080020292F6
:1017B000029A03941A6B42F004021A631A6B02F045
:1017C00004020392039A04941A6B42F001021A6312
:1017D0001A6B02F001020492049A05941A6B42F00B
:1017E00002021A631A6B02F002020592059A06942D
:1017F0001A6B42F040021A631A6B02F04002069222
:10180000069A07941A6B42F008021A631B6B03F0E6
:101810000803224607933C21079B03F003F99E48E7
:101820000122022103F0FEF822469B48042103F026
:10183000F9F8224699484FF4405103F0F3F8012695
:101840003C23CDE90D3692480F9403230DA90227BE
:10185000109302F0FDFF90480DA9CDE90D76CDE97A
:101860000F4402F0F5FF04238B480DA9CDE90D3696
:10187000CDE90F4702F0ECFF0DA94FF44053874824
:10188000CDE90D36CDE90F4702F0E2FF8448854BE4
:10189000036002F0D3FEDFF83CE2834B2C62C5E923
:1018A00000E328464FF48043C5E90434C5E9024407
:1018B000C5E9064403F0C4FA1021284603F008FDE8
:1018C00021462846794D03F022FD4FF48273C5E985
:1018D00000834FF400791823C5E9069328460A23AC
:1018E000C5E90244C5E90444C5E90844AC62EB62B9
:1018F00004F0C6FB8F232246394667488DF8243012
:101900008DF8344003F08EF832464FF47A7309A90B
:10191000284604F011FC4FF47A7332460DA928468C
:1019200004F0B6FD324639465B48614D03F07AF863
:101930009DF83430D32B04BF5E4B1E705E4B0126E6
:10194000C5E90036102240230024C5E904234FF4E2
:10195000C073C5E906344FF40063C5E908344FF499
:10196000005302274FF00409AB624FF0030A07232C
:101970000DA92846CDE90D73CDE90F934FF0080866
:10198000C5E90249CDE911A7139704F05DFA4FF6B6
:10199000FF7209A92846CDE90A86089409960C9495
:1019A00004F072FA304602F0E3FD4FF6FF7209A927
:1019B0002846CDE90978CDE90B6404F065FA4FF6C5
:1019C000FF7209A92846CDE909A8CDE90B9404F0D6
:1019D0005BFA4FF40C730893089B0C934FF6FF725D
:1019E00009A92846CDE909980B9604F04DFA40F272
:1019F0006A51284604F066FA34220DEB02002146B3
:101A000021F057F92D4D2E4B2C61C5E900340923E7
:101A1000C5E905361D23C5E9073A40F20D1140F22C
:101A20004313C5E9091340F2171040F24713C5E903
:101A30000B032846C5E90244AC8685F8364003F01E
:101A4000F9FCFF214FF4806CF022CDE9121405213E
:101A5000CDE914C14FF4A0730DA9CDE90E24CDE951
:101A6000164228462246174D1893CDE910370D949B
:101A7000ADF864408DF8664003F090FD124B2B608A
:101A80001B6898472B68114DDB6825E00038024041
:101A900000100240B81B002000080240000C024069
:101AA0004C1C002000300240A0860100B81A002023
:101AB000841A0020781A0020400100A0101B00208A
:101AC00000680140741A0020140000200C1C002043
:101AD00000500140005C00409847134B2846C5E980
:101AE0000034C5E90274C5E90A47C5E90C4402F0AF
:101AF000B5FD3146284602F067FEFEF7D9FDFEF738
:101B0000D6FD04F063FF094A0948214604F08AFF24
:101B1000084B094A18602146084804F083FF084B27
:101B2000186004F065FFFEE700B002407449020847
:101B3000AD160008801A002050490208BF060008B0
:101B40007C1A0020704770477FB5094B8DF817202D
:101B50001B6802930DF117020123009201930A46BC
:101B60000146044803F014FA07B05DF804FB00BF17
:101B700010000020B81B00207FB500238DF817301F
:101B8000084B1B6802930A4601230DF117010091CF
:101B900001930146044803F08BFA9DF8170007B043
:101BA0005DF804FB10000020B81B00201FB5084C96
:101BB00024680092CDE901340A4601230146054814
:101BC00003F076FA003818BF012004B010BD00BF42
:101BD00010000020B81B002002F0CABC10B5064C53
:101BE00000222046042102F01DFF20460122BDE80C
:101BF0001040042102F016BF0008024038B50B4D1A
:101C0000044601220A484FF4005102F00BFF002263
:101C10000421284602F006FF2046FFF735FD28463E
:101C20000122BDE83840042102F0FCBE0008024059
:101C3000000C024038B50B4D044600220A484FF410
:101C4000005102F0EFFE00220421284602F0EAFED5
:101C50002046FFF719FD28460122BDE8384004213F
:101C600002F0E0BE00080240000C0240F7B5144E3E
:101C7000144F05460C4630460022042102F0D2FEE5
:101C800000224FF40051384602F0CCFE2846FFF700
:101C9000FBFC0D4B0D481B68224601A904F0F8FB24
:101CA000384601224FF40051019C02F0BBFE304641
:101CB0000122042102F0B6FE204603B0F0BD00BFB1
:101CC00000080240000C02400C000020B81A00205E
:101CD00002F04EBC0268034B9A4201D102F036BCBE
:101CE000704700BF001000407047000082B00E4BEC
:101CF00000220092596C41F480415964596C01F4FE
:101D00008041009100990192196C41F08051196451
:101D10001B6C03F080530193019B0F216FF00100B6
:101D200002B002F04BBC00BF003802400268094B11
:101D30009A4282B00BD100230193074B1A6B42F4F5
:101D400080521A631B6B03F480530193019B02B012
:101D5000704700BF003002400038024007B50F4B0B
:101D600002689A4216D10022A3F5F0430192196B42
:101D700041F4000119631B6B03F400030193052177
:101D80005A20019B02F01AFC5A2003B05DF804EBC4
:101D900002F046BC03B05DF804FB00BF00B0024097
:101DA0002DE9F043044689B01422002103A820F055
:101DB00080FF2268244B9A4243D1244C24480025BA
:101DC0000095236B43F004032363236B03F00403A8
:101DD0000093009B0195236B43F001032363236B66
:101DE00003F001030193019B4FF012094FF40073BC
:101DF0004FF001080327042603A9CDE90339CDE9F3
:101E00000587079602F024FD4FF48073114807966A
:101E100003A9CDE90339CDE9058702F019FD029543
:101E2000236C43F400032364236C03F40003029344
:101E3000029B236A43F400032362236A23F4000312
:101E4000236209B0BDE8F083005C00400038024026
:101E50000008024000000240F0B599B00446142288
:101E6000002107A820F025FF30220DEB0200002101
:101E700020F01FFF22685E4B9A4240F0B780082393
:101E80000C93C0231093042312930CA84FF4003337
:101E9000159303F0ADFE08B1FFF726FF554B5648EA
:101EA000002400945A6C42F080625A645A6C02F02A
:101EB00080620092009A01941A6B42F020021A6329
:101EC0001A6B02F020020192019A02941A6B42F0FE
:101ED00001021A631A6B02F001020292029A039441
:101EE0001A6B42F002021A631A6B02F002020392AA
:101EF000039A04941A6B42F040021A631A6B02F0C0
:101F000040020492049A05941A6B42F004021A6388
:101F10001A6B02F004020592059A06941A6B42F0BD
:101F200008021A631B6B03F00803069302250E26B2
:101F3000069B0B964FF4806307A9CDE90735CDE9E1
:101F4000094502F085FC41F658032C480B9607A979
:101F5000CDE907350927CDE9094502F079FC0323CE
:101F600027480B9707A9CDE90735CDE9094502F0C8
:101F70006FFC4FF4706322480B9607A9CDE9073533
:101F8000CDE9094502F064FC4FF40C631D480B9643
:101F900007A9CDE90735CDE9094502F059FCC02371
:101FA00019480B9607A9CDE90735CDE9094502F097
:101FB0004FFC082315480B9607A9CDE90735CDE955
:101FC000094502F045FC4FF4A0530E480B9707A9B2
:101FD000CDE90735CDE9094502F03AFC5820224603
:101FE000052102F0EBFA582002F01AFB19B0F0BDFF
:101FF0000068014000380240001402400000024026
:10200000000402400018024000080240000C024098
:1020100010B5044688B01422002103A820F049FE20
:102020002268144B9A4223D103F5684300210191A1
:102030005A6C114842F480125A645A6C02F48012AD
:102040000192019A02911A6B42F020021A631B6BF3
:1020500003F020030293029B4FF4607202230321DA
:10206000CDE903230523CDE9061303A902F0F0FB14
:1020700008B010BD00500140001402402DE9F041AD
:1020800086B0002303932B4B1C68002C4FD14FF0DC
:102090000108C3F80080284B00949A6B274842EA55
:1020A00008029A639B6B03EA080300930227032646
:1020B0000C25009B01A94FF63F03CDE90137CDE97F
:1020C000046502F0C5FB1E48059501A9CDE901870D
:1020D000CDE9034602F0BCFB48F2331319480595DD
:1020E00001A9CDE90137CDE9034602F0B1FB4FF676
:1020F00083731548059501A9CDE90137CDE903465C
:1021000002F0A6FB4CF203731048059501A9CDE936
:102110000137CDE9034602F09BFB60230C4805958F
:1021200001A9CDE90137CDE9034602F091FB06B0E4
:10213000BDE8F081541C0020003802400014024029
:10214000000802400018024000100240000C02404B
:102150000004024070B588B000230293204B1A6C33
:1021600042F010021A641B6C03F010030293054640
:1021700001A903A8029B03F01DFD069B4BBB03F0C6
:1021800009FD184E184B336040F2E733F360174BEC
:10219000B0FBF3F3013B7360304600233361B3605F
:1021A000B36104F03FFB044680B9304604F014FAF2
:1021B000044658B9362002F033FA0F2D0DD82246C6
:1021C0002946362002F0FAF9094B1D60204608B076
:1021D00070BD03F0DFFC4000D3E70124F6E700BF49
:1021E00000380240581C00200010004040420F0000
:1021F0007C0000207047FEE7FEE7FEE7FEE7704741
:10220000014804F027BA00BF581C0020014803F021
:1022100068B900BF101B0020014802F04BBA00BF94
:102220000C1C00200120704708B520F0E5FD1623A6
:1022300003604FF0FF3008BD08B520F0DDFD162328
:102240000360FEE770B50D4614460E46731B9C42B4
:1022500001DC204670BDAFF3008006F8010BF5E706
:1022600070B50D4614460E46731B9C4201DC204699
:1022700070BD16F8010BAFF30080F5E74FF0FF30AB
:1022800070474FF400534B600020704701207047A7
:10229000002070470A4A116808B5034609B9094980
:1022A00011601068694603448B4206D920F0A4FDF2
:1022B0000C2303604FF0FF3008BD1360FCE700BF44
:1022C000A01C0020F8370120704708B50D2914D84C
:1022D000DFE801F00F070B0F0F0F0F0F0F0F0F0F9E
:1022E0000F0F01F0B7FD406808BD01F0B3FD806835
:1022F000FAE701F0AFFD0068F6E70020F4E710B55B
:10230000042104461FF092FB204610BD0048704790
:10231000AC4902080520704713B5002451B1036889
:1023200001948DF8034001AA9C680DF10303A047B6
:1023300002B010BD0846FBE7C0897047008A7047AD
:10234000C088704780887047807A00F07F007047AF
:10235000807AC00970470020704700009FED010A95
:10236000704700BF00000000704710B50821044608
:102370001FF05CFB204610BD7047704700F5987356
:102380000868496803C370477047704741607047E9
:1023900070477047064BC0F84C310023C0F85031ED
:1023A00000F5A273C0F84801C0F84031704700BF83
:1023B000292900080123037270477047704770474E
:1023C00038B5054640680368DB699847044604B998
:1023D00038BDA188AB89C91A236820461B6B09B296
:1023E0009847A469F3E710B4C268416854100346E3
:1023F00001EB6200D20748BF0A599B685DF8044BA5
:1024000048BFD35818470346406830B19A681AB994
:10241000D86800F0010070470120704710B50C210A
:1024200004461FF003FB204610BD10B510210446E2
:102430001FF0FCFA204610BD10B5102104461FF015
:10244000F5FA204610BD10B54FF4AE7104461FF0EA
:10245000EDFA204610BD10B5402104461FF0E6FA03
:10246000204610BD10B50CF08DFF0368BDE810408C
:10247000DB6B184710B50CF085FF0368BDE8104012
:102480005B6B184737B50546807A6B7A0130C0B26E
:102490009842A87205D901232B720023AB7203B0B6
:1024A00030BDB5F90C20B5F90E4000210FF0B4F99C
:1024B000C30707D500284FF6FF73C8BF012313FADF
:1024C00080F000B2AB7AE881041B012BA4B206D1E4
:1024D000174B1B781BB10CF055FF0CF059FF154A38
:1024E00000231288ADF80230EB891A445B42ADF844
:1024F0000430114BADF800201B88ADF806300CF00D
:1025000041FF036802AA12E906001B6C984768683D
:102510000368DB6998470546002DC0D0A9882B6861
:10252000214428461B6B09B29847AD69F4E700BF08
:10253000B62A0120AC2A0120AE2A0120054B1B78C7
:1025400001462BB1406818B103680C315B6E184727
:10255000704700BFB72A0120037A70B50546BBB9A2
:1025600040680368DB69984704463CB968680368BB
:1025700005F10C011B6EBDE870401847A1886B8FF8
:10258000C91A236820461B6B09B29847A469ECE777
:1025900070BD10B50446D0F8400158B10368DB683F
:1025A000984738B1D4F8400103689B6898470023E6
:1025B000C4F8403110BD70B5044690F8390094F865
:1025C00038300130C0B2984284F8390005D901236F
:1025D0002372002384F8393070BDB4F93A20002109
:1025E0000FF01AF9C30706D500284FF6FF73C8BFCE
:1025F0000123184400B2238AC01AA08760680368C8
:10260000DB69984705462DB960680368BDE87040EE
:102610005B691847A988A38F19442B6828461B6B50
:1026200009B29847AD69EEE72DE9F14FD0E9556A57
:102630000746B06803681B6A9847B0F5A76F05D2D4
:10264000484B494AA321494820F02CF97068036897
:102650001B6A98470F2803D8454B434AA421F2E749
:10266000F06803681B6A98470F2803D8414B3E4A1D
:10267000A521E8E70CF086FEDFF8049104300CF0A9
:10268000E7FED9F8000010B10368DB689847D9F875
:10269000000010B103681B689847DFF8E880D8F89D
:1026A000000010B103685B699847D7F83C0110B18E
:1026B00003685B689847D8F8000010B103681B688E
:1026C0009847D7F83C0110B103689B689847F068B9
:1026D000036800215B6A9847274B03604FF4A053BF
:1026E0000381264B1B884FF0000B80F80AB05B4239
:1026F0000446C0F804B0A0F80EB08381B068036847
:1027000059465B6A9847054601F04CFC70680368BF
:1027100059465B6A98472946064601F021FC331D5D
:10272000C7F83C61C9F80040C8F80050CAF800304A
:102730002B68C6F808A02846DB68EE639847336824
:1027400030461B689847214628460FF05FF82368FB
:1027500020461B69984723685B69204601B0BDE8A5
:10276000F04F1847293E0208B73E02089C3F020876
:10277000E33F020886400208B84A0208AC2A01205A
:10278000002B0120FC2A01202DE9F14FD0E9556AE8
:102790000746B06803681B6A9847B0F5C27F05D248
:1027A000564B574AA321574820F07CF870680368BD
:1027B0001B6A98470F2803D8534B514AA421F2E7CC
:1027C000F06803681B6A98473F2803D84F4B4C4A70
:1027D000A521E8E70CF0D6FDDFF8449104300CF0B9
:1027E00037FED9F8000010B10368DB689847D9F8C4
:1027F000000010B103681B689847DFF82881D8F8FB
:10280000000010B103685B699847D7F83C0110B12C
:1028100003685B689847D8F8000010B103681B682C
:102820009847D7F83C0110B103689B689847F06857
:10283000036800215B6A984705460023344A4360D9
:10284000037245F80C2B0446284609F0C9F81422F7
:102850002287304A12780023A387002A35D101232A
:102860002372B068036800215B6A9847054601F04F
:1028700059FB7068036800215B6A98472946064641
:1028800001F02EFB331DC7F83C61C9F80040C8F8C1
:102890000050CAF800302B68C6F808A02846DB684C
:1028A000EE639847336830461B68984721462846B0
:1028B0000EF0ACFF236820461B69984723685B69CC
:1028C000204601B0BDE8F04F18471349134AB1F94B
:1028D00000B0E168236128468B6BB2F9001098477D
:1028E000E3685946DB6B28469847284608F0F3FF13
:1028F0000A4A13885B426387B3E700BF293E020898
:10290000294102089C3F0208E33F02088640020872
:10291000DC4A0208B72A0120AE2A0120AC2A012095
:10292000002B0120FC2A01202DE9F14FD0E9556A46
:102930000746B06803681B6A9847B0F5C27F05D2A6
:10294000444B454AA32145481FF0ACFF706803681B
:102950001B6A98470F2803D8414B3F4AA421F2E74E
:10296000F06803681B6A98470B2803D83D4B3A4A26
:10297000A521E8E70CF006FDDFF8F09004300CF03C
:1029800067FDD9F8000010B10368DB689847D9F8F3
:10299000000010B103681B689847DFF8D480D8F8AE
:1029A000000010B103685B699847D7F83C0110B18B
:1029B00003685B689847D8F8000010B103681B688B
:1029C0009847D7F83C0110B103689B689847F068B6
:1029D000036800215B6A98474FF0000B224BC0F858
:1029E00004B0044680F808B00360B0680368594634
:1029F0005B6A9847054601F095FA70680368594686
:102A00005B6A98472946064601F06AFA331DC7F803
:102A10003C61C9F80040C8F80050CAF800302B6883
:102A2000C6F808A02846DB68EE639847336830464E
:102A30001B689847214628460EF0E8FE236820468A
:102A40001B69984723685B69204601B0BDE8F04FD9
:102A5000184700BF293E0208084202089C3F0208AE
:102A6000E33F020886400208944A0208002B012036
:102A7000FC2A0120044B1B6893F858200AB1D86C3B
:102A800000B99868704700BFB82A0120F8B517460A
:102A900004460E460CF0AAFD124B1C60124B23603C
:102AA000124B0025C4E95135114BC4E95355186840
:102AB000036801219B68C4E94F55C4E955769847DE
:102AC000284601F07BF9FFF7D5FF16F0ACFEFFF7C3
:102AD000D1FF16F023FFFFF7CDFF16F02BFF2046A6
:102AE000F8BD00BF0C2B0120404A0208284A02080A
:102AF000B82A0120064BC0F84C310023C0F85031F1
:102B000000F5A273C0F84801C0F84031704700BF1B
:102B100029290008064BC0F84C310023C0F8503179
:102B200000F5A273C0F84801C0F84031704700BFFB
:102B300089270008064BC0F84C310023C0F85031FB
:102B400000F5A273C0F84801C0F84031704700BFDB
:102B500029260008406A7047806A704770478A8853
:102B60000B8810B5D20A4C88C1699BB251F822007B
:102B700043EA0443184410BD10B50446BAB1107BB3
:102B800068B1537BD27A1B0203F4E0631A43236AD1
:102B900003EB82031A888A4202D193F9020010BD26
:102BA00005D8013880B204330028F3D1F7E70020BC
:102BB000F5E710B52C2104461EF038FF204610BD65
:102BC00030B58BB00446BDF860500895BDF85C5038
:102BD00007959DF8505006959DF84C5005959DF829
:102BE000485004959DF8445003959DF84050029537
:102BF0009DF83C500195BDF8385000950EF03EFA16
:102C0000064B2360159BE361169B2362199B63624D
:102C10001A9BA36220460BB030BD00BF004B0208D8
:102C20007047704770477047704730B5036885B08C
:102C30006D460181D3F88430014604462846984702
:102C400095E807003C3484E8070005B030BD30B596
:102C5000036885B06D464181D3F88430014604464F
:102C60002846984795E807003C3484E8070005B0FB
:102C700030BD0022028042808280C280704780F88E
:102C80003610704770B5036804461B6B15469847AD
:102C90002368294620465B6EBDE870401847002037
:102CA0007047806C70477047704770477047704737
:102CB0000368DB6A184730B4C2684468551003469D
:102CC00004EB6200D20748BF62599B6830BC48BF22
:102CD000D35818470346406830B19A681AB9D86883
:102CE00000F0010070470120704710B54C210446E8
:102CF0001EF09CFE204610BD10B5102104461EF0AB
:102D000095FE204610BD10B54FF4C27104461EF06A
:102D10008DFE204610BD08B5FEF7C0FB08BD0000C3
:102D2000036870B55E6B124B1B6804468DB22BB9FD
:102D3000104B114A6C2111481FF0B4FD1049828DCF
:102D40000988914203D80F4B0B4A6D21F3E713F822
:102D500012200D4B1B6853F8220003681B6B984729
:102D6000291A3346204609B2BDE87040184700BF13
:102D7000102B0120D44202081643020851430208D6
:102D8000142B012098430208182B012000F596709F
:102D9000884208B505D10CF0F5FABDE80840FFF708
:102DA000C9BE08BD00224FF0FF31C0E9002182609A
:102DB000704770B5036804461B6B15469847236837
:102DC000294620465B6BBDE87040184770B5044645
:102DD0001D46BDF91060FFF7ECFF23682946204629
:102DE0009B6B9847236831462046DB6BBDE87040FB
:102DF000184700004FF4807181840D4901600D492E
:102E000081624FF6FF7181854FF47F01002241639B
:102E10004FF0FF31C0E90122C0E90322C0E90522D9
:102E2000C0E90722C0E9101202630287C26370473B
:102E300098550208184A0208F8B5194B018F1B88EB
:102E40008B4206462AD9174B1B682BB9164B174ADB
:102E500017486C211FF026FD13F81120154B1B6835
:102E600053F82250144B186800F0E4FF2B68074613
:102E70009B6B284698472B6804469B6C394628462E
:102E800098472B6814FB00F45B6A3946284698473C
:102E9000A4B223181BB2A6F84630F8BD0023FAE707
:102EA000142B0120102B0120D442020816430208E3
:102EB00051430208182B01201C2B01202DE9F04F53
:102EC00004468DB00EF0F6FA7B4B23607B4B002559
:102ED000C4E910354FF4807304F16C06A4F8643033
:102EE000FF230AA904F1980884F8663030464FF6AB
:102EF000FF73C4E91255C4E91455C4E91655E563D6
:102F00002566A566ADF8283008F0D4FD4046FFF7E9
:102F100071FF04F1E4076A4BC4F89830C4F8E0503C
:102F2000384604F5967AFFF765FF504609F062FED1
:102F3000644BC4E95D34644B4FF4A07B2A46C4E97A
:102F40005F3504F14000CDF800B0F023294603902E
:102F5000FFF73CFF03984FF07F4304F10409A36699
:102F60000146484605F022FE30460AA9ADF8285031
:102F700009F008FDF0232A463046CDF800B0294676
:102F8000FFF724FF3046294608F04FFD31464846FA
:102F900005F00CFE962226214046FFF70AFFD4F8E2
:102FA0009830A4F8CC5004AE4FF0FF3BD3F88430F7
:102FB000C4F8C8B041463046984796E8070004F187
:102FC000D40383E80700414B1B682BB9404B414AAF
:102FD000602141481FF066FC404B1B88092B03D839
:102FE0003F4B3C4A6121F4E73E4B0921186800F051
:102FF00021FFC4F8E000404609F080FA3A4B0A93FA
:103000000A220AA94046ADF82C2009F097FA414659
:10301000484605F0CBFD1D2238461121FFF7C9FEB9
:1030200039463046C4F814B1A4F8185108F0ECFF42
:1030300096E8070004F590784FF0020388E807004F
:1030400084F81D313946304608F0DEFF96E8070067
:10305000254B0A9388E8070008230AA93846ADF8EB
:103060002C3009F06BFA3946484605F09FFD294699
:103070005046BB22FFF79DFE01230AAA09A9ADF81D
:10308000243050464FF00203ADF8283009F0B3FA6F
:103090000723A4F864315046FFF7CEFE04F5BA7357
:1030A0004846C4E95ABBC4F85431514605F07EFD88
:1030B00020460DB0BDE8F08F104C020828560208DB
:1030C000684B0208F84B02088D2D0008102B0120D8
:1030D000D4420208D643020851430208142B0120AF
:1030E000984302081C2B0120184A0208806A704786
:1030F000704770477047806C7047C06C704770476E
:103100007047704770477047704770477047704707
:10311000704770477047704770470368DB6A18470D
:1031200090F82C304BB100F17402126842663BB14A
:1031300000F17C031B688366704700F17002F4E7BE
:1031400000F17803F6E708B590F82C303BB100F1B8
:10315000CC031B68C0F8B030FFF7E2FF08BD00F1F8
:10316000C803F6E790F82C304BB100F16C021268FE
:10317000C2653BB100F174031B680366704700F140
:103180006802F4E700F17003F6E708B590F82C3018
:103190003BB100F1C4031B68C0F8A830FFF7E2FFA1
:1031A00008BD00F1C003F6E730B4C26844685510AA
:1031B000034604EB6200D20748BF62599B6830BCEB
:1031C00048BFD35818470346406830B19A681AB9C7
:1031D000D86800F0010070470120704790F82D304A
:1031E00080F8AE3080F85A30704790F82D3080F873
:1031F0006030704790F82D3080F85A30704790F862
:103200002D3080F8B63080F86230704790F82D305D
:1032100080F8623070470146383091F82C3013B195
:10322000363109F0AFBB3431FBE710B53421044629
:103230001EF0FCFB204610BD10B5642104461EF0B4
:10324000F5FB204610BD10B5502104461EF0EEFBE4
:10325000204610BD10B5802104461EF0E7FB204635
:1032600010BD10B5D02104461EF0E0FB204610BD75
:1032700010B5782104461EF0D9FB204610BD10B5CC
:10328000C82104461EF0D2FB204610BD10B5102107
:1032900004461EF0CBFB204610BD10B54FF4A761CD
:1032A00004461EF0C3FB204610BD38B500F5197367
:1032B000994204460D4602D103681B6B984704F5FA
:1032C0004D739D4203D1236820465B6B984704F100
:1032D000C4039D4203D1236820469B6B984704F5A5
:1032E000CA739D4203D123682046DB6B984704F5DF
:1032F0006B739D4203D10CF045F8FFF70BFC04F50E
:103300008264A54205D10CF03DF8BDE83840FFF7D6
:1033100001BC38BD10B50446006B50B10368DB68D2
:10332000984730B1206B036821469B68BDE8104088
:10333000184710BD90F82C3010B504466BB1B0F9A9
:103340003830B0F93A209A4208D10368D3F888306F
:10335000984700232387E38E638710BD01330387DB
:10336000FBE738B50B7990F82C2004460D468BB955
:103370008AB123682046D3F88830984700232387F2
:10338000A38E63870BF0FEFF21460430BDE8384072
:103390000CF0EEB882B1B3FA83F35B0984F82C30F9
:1033A00023682046D3F88C309847236820465B6911
:1033B00098472B79002BDCD00BF0E4FF214604303A
:1033C000BDE838400CF02BB80B7970B590F82C6044
:1033D00004460D460BB916B170BD002EFCD0B3FAF1
:1033E00083F35B0984F82C3023682046D3F88C30B3
:1033F0009847236820465B699847002EECD02B79CC
:10340000012BE9D123682046D3F88830BDE870400D
:1034100018470B882DE9F04183861388B0F90850CE
:10342000C3860446104690460FF062FAB4F90A309B
:10343000074603EBD3734046C3F34F060FF08CFAF5
:1034400005EBD575C5F34F0500EBD07007EBD777CB
:10345000A6EB6002A5EB670104F1380012B209B2D5
:10346000FFF7A7FC23682046D3F88C30BDE8F04175
:10347000184770B5036804469B6B15469847236848
:1034800029462046DB6BBDE8704018470022C0E9A2
:103490000122C0E90322C0E90522C0E907224FF456
:1034A00080728284014A0260704700BF484C020863
:1034B00010B52622044600211FF0FBFB2046FFF733
:1034C000E5FF044B2360FF2384F826300023A3622A
:1034D000204610BD28560208094A02600022C0E9B1
:1034E0000122C0E90322C0E90522C0E90722826265
:1034F0004FF47F41026340F201128185828470475C
:10350000B04C020870B50446FFF7E6FF154B0025E6
:103510002646C4E90D35144B46F83C3B3046FFF7D0
:10352000C7FF124BE3632A4629463046C4E91C55BF
:10353000C4E91E55A566A4F86C50FFF73AFC314665
:103540002046264605F032FB094B46F8803B3046C4
:10355000FFF750FC2046C4E93255314605F026FB02
:10356000204670BD1E000F00DC4D02089056020878
:10357000784E020838B53422044600211FF099FB2A
:1035800025462046FFF7A8FF0C4B45F8343B28465C
:10359000FFF78EFF00220A4B63631146C4E91A222B
:1035A000C4E91C222266A4F864202846FFF701FC27
:1035B0002046294605F0FAFA204638BD144F020885
:1035C0009056020838B5044600F18005284608F0F8
:1035D000B5FFB4F90A20B4F908102846FFF749FFEF
:1035E00038BD0368C0E93212D3F88C3018470000A8
:1035F0002DE9F04F044693B0A04600250DF05AFF88
:10360000DB4BE56348F8403B04F16C074046FFF7AD
:103610004FFF4FF6FF7B10A904F19809384604F1DB
:10362000C406ADF840B008F045FA4846FFF740FF41
:103630003046FFF767FF04F5CA7318460393FFF798
:1036400061FF04F5197318460493FFF75BFF04F557
:103650004D7318460993FFF78DFF04F56B732946E8
:103660003422184605931FF024FB0598FFF734FF1A
:10367000C04BC4F8AC3304F5797A4FF0FF332622FF
:103680002946C4F8E0335046ADF840B01FF011FBB6
:103690005046FFF7FBFEB84BC4F8E433BDF84030AA
:1036A000A4F80A34504684F80CB410A909F06AF959
:1036B0005146059805F07AFA04F582631846069398
:1036C000FFF758FFAD4BC4F8103404F5916318466A
:1036D0000893FFF78FFB08990698C4F8D054C4F8F4
:1036E000D45405F063FA04F59B6318460793FFF77B
:1036F00081FBA34BC4F8D834A24BC4F828354FF44F
:10370000A07BA14BC4F820552A46C4F82455C4F820
:103710003035C4F8345529464046C4F82C45F023CA
:10372000CDF800B0FFF752FB04F1040A4FF07F43DD
:10373000A3664146504605F039FA384610A9ADF85F
:10374000405009F01FF92A46F02329463846CDF8A3
:1037500000B0FFF73BFB2946384608F066F93946CA
:10376000504605F023FA3C234FF48272294648461E
:103770000093F023FFF72AFB4FF07F43C4F8C030DB
:103780004FF05F03494684F8BE3050461A2705F0D3
:103790000DFA4FF01E13C4F8F8302A462946009758
:1037A000322304F58070FFF711FB784A784B794992
:1037B0007948DFF8F081C4E94D32D4F8C4304FF0D5
:1037C000050BC4E94F10D3F88C30A4F830B1304663
:1037D00098470DF1400E4FF0030C71466F4BADF85A
:1037E00044C030461093FFF7EDFE32232A462946A7
:1037F000009704F5A270FFF7E9FA04F5A5694246BF
:1038000041463046FFF7EDFE84F8E95032234FF48D
:1038100091723046C4F8F4905F210097FFF7D6FA12
:103820003146504605F0C2F94FF00F13C4F8C831C5
:103830002A4629460097322304F5E870FFF7C6FAB6
:10384000534E524A53495448D4F89431A4F800B224
:10385000C4E98162C4E98310D3F88C300398984797
:103860000DF1400E4D4B0398109371460223ADF8B5
:103870004430FFF7A7FE32232A462946009704F575
:103880000570FFF7A3FA424641460398FFF7A9FEE9
:1038900084F8B951322340F201120398C4F8C4915C
:1038A0005F210097FFF792FA0399504605F07EF9E1
:1038B0003B4BC4F898322A4629460097322304F538
:1038C0002870FFF783FA314A3249D4F8643232481B
:1038D000D3F88C30C4F8D462C4E9B621C4F8E0024D
:1038E000A4F8D0B2049898470DF1400E2B4B0498E1
:1038F000109371460123ADF84430FFF763FE322385
:103900002A462946009704F53970FFF75FFA4246C8
:1039100041460498FFF765FE84F8895232234FF43C
:1039200087720498C4F89492A5210097FFF74EFA85
:103930000499504605F03AF932232A462946009761
:1039400004F55A70FFF742FA104A12491248C4F8B7
:103950009C63C4E9E821C4F8A803A4F898B30998C3
:10396000FFF700FC322384F859534FF487721BE0B1
:1039700004510208B04F0208F856020850500208DD
:103980004C4D0208EC500208AB320008CC9900FF05
:10399000996600FF663300FF996633FF184A0208F4
:1039A00003003C000A0A0AFF0998C4F8649319212D
:1039B0000097FFF70BFA0999504605F0F7F804272E
:1039C0004FF0030C0598ADF83CC010AA0FA9ADF854
:1039D0004070FFF71EFD1423C4F8E8534FF49672AD
:1039E0000598C4F8DC93DC210093FFF7EFF9322649
:1039F0000599504605F0DAF82A4629468C2304F248
:103A000044400096FFF7E2F94B4BC4F878344B4B37
:103A1000C4F87C3403F5412303F2EA63C4F880342C
:103A2000474BC4F88434D4F810340698D3F88C305B
:103A3000A4F874B49847434B0898109310A9ADF8B4
:103A4000445008F07BFDB4F91A24B4F9181408980E
:103A5000FFF70FFD2A4629468C2308980096FFF7AA
:103A6000B5F90698C4F8D084C4F8D484FFF78DFB68
:103A70008C2384F835546E220698C4F8409431465D
:103A80000096FFF7A3F90699DFF8D480504605F0B9
:103A90008DF84FF48C7207980A21FFF78AF94FF0DE
:103AA000FF33C4F80835D4F8D834A4F80C550AAD5F
:103AB000D3F8843007992846984795E8070004F220
:103AC000145383E80700D8F800302BB91E4B1F4A67
:103AD00060211F481EF0E6FE1E4E3388052B03D8DA
:103AE0001D4B1A4A6121F4E71C4D5946286800F025
:103AF000A1F9D8F80030C4F82005002BE6D03388AF
:103B0000042BEDD93946286800F094F9C4F824054F
:103B1000079808F0F3FC0B4B0798109310A90623A5
:103B2000ADF8443008F00AFD5046079905F03EF81C
:103B3000204613B0BDE8F08F3338CCFF2C72D4FF91
:103B400031DEF5FF184A0208D4420208D6430208C3
:103B500051430208142B0120984302081C2B01201A
:103B6000102B01207047000030B5164D2C6814F062
:103B700001048FB0BFF35B8F21D128461DF058FFA1
:103B8000E8B13F230993104B0893104B079301238F
:103B9000CDE9054304930423CDE902430A230C49EC
:103BA00000931022CDE90B440A480A940194FFF7D0
:103BB00007F809481EF094FE28461DF045FF054809
:103BC0000FB030BDA41C00200C7602084876020815
:103BD00004740208A81C0020653B00087047000020
:103BE00030B5164D2C6814F001048FB0BFF35B8F15
:103BF00021D128461DF01CFFE8B13F230993104B4B
:103C00000893104B104911480A94CDE9064301224C
:103C10000423CDE90332142300930922CDE90B4498
:103C2000CDE901440594FEF7CBFF09481EF058FE8C
:103C300028461DF009FF05480FB030BDD41C0020F8
:103C4000107602084C760208E4740208D81C0020A2
:103C5000DD3B00087047000030B5174D2C6814F0AC
:103C600001048FB0BFF35B8F22D128461DF0E0FE28
:103C7000F0B13F230993114B0893114B0793012394
:103C8000CDE9054304930423CDE9024328230D49DC
:103C900000930C222923CDE90B440B480A9401948C
:103CA000FEF78EFF09481EF01BFE28461DF0CCFED5
:103CB00005480FB030BD00BF041D00201476020877
:103CC0005076020864750208081D0020553C000863
:103CD00000207047002070470EB403B503AB0021ED
:103CE00053F8042B01930CF047FC02B05DF804EB91
:103CF00003B070470CB407B504AB53F8042B019321
:103D00000CF03AFC03B05DF804EB02B07047000021
:103D1000436C10B5044673B3038F2BB9184B194A83
:103D2000C52119481EF0BEFDC38E00EB43035B8C1A
:103D30000BB30EF0F6FA238F012B03D8134B144A62
:103D4000CB21EEE7E28E531C9BB2092B194688BFAC
:103D5000A3F10A0104EB410140F63F10498C814276
:103D600009D10A2B04EB420228BF002304EB4303D2
:103D7000508C588451842046BDE810400EF0D4B9D0
:103D8000214402082A440208D54402081F450208BB
:103D90002D4502080EF08FB910B586B002AC84E84C
:103DA00006001A460AAB05930193099B009321462E
:103DB000089B0AF069FE06B010BD000038B518BBBC
:103DC000124B13481C681349B4B1226822440260A4
:103DD000626822440A60A26814440F4B00221A80D1
:103DE00000F038F8054600F033F80C4B1C600C4B23
:103DF0001D600C4B188007E00B4B03600B4B0B60F6
:103E00000B4B1C68002CE8D138BD00BF401D0020C2
:103E1000381D0020341D00203C1D0020102B0120E7
:103E2000182B0120142B01208076020854760208FA
:103E3000FC760208044B1B6853F82100034B1B68F7
:103E400003EB4000704700BF341D0020381D0020E8
:103E50000B20704700487047441D002010B5FFF745
:103E6000BFFE044C2060FFF7F7FE6060FFF77CFEAA
:103E7000A06010BD441D002010B5002404600C603B
:103E800014601C6010BD704710B54FF4AE7104464D
:103E90001DF0CCFD204610BD10B50446D0F85801E9
:103EA00000F04FF82046BDE810400BF02FBB00009B
:103EB00010B50446FEF7EAFD014B2360204610BD15
:103EC0004C510208704704387047704710B51021F4
:103ED00004461DF0ABFD204610BDA0F10400F5E73F
:103EE00000228260024A026018324260C16070475C
:103EF000A05102087047000010B5034B0360044650
:103F0000FEF7D4FE204610BDC851020810B5044685
:103F1000FFF7F2FF20464FF4C2711DF087FD2046E7
:103F200010BD000010B50446FEF7C8FF014B23602A
:103F3000204610BDC8510208FEF7B9BE002202603B
:103F400070477047704704387047704710B51021AC
:103F500004461DF06BFD204610BDA0F10400F5E7FE
:103F600000228260024A026018324260C1607047DB
:103F7000005202087047000010B5034B036004466E
:103F8000FFF7C9F8204610BD2852020810B50446B4
:103F9000FFF7F2FF20464FF4A7611DF047FD2046D2
:103FA00010BD000010B50446FFF722FB014B236053
:103FB000204610BD28520208FFF7AEB8F020704727
:103FC0004FF4A07070472920FDF734BE2820FDF77C
:103FD00031BE08B5FDF702FECA20FDF72BFEC32057
:103FE000FDF70CFE0820FDF709FE5020FDF706FE48
:103FF000CF20FDF71FFE0020FDF700FEC120FDF7DA
:10400000FDFD3020FDF7FAFDED20FDF713FE6420E5
:10401000FDF7F4FD0320FDF7F1FD1220FDF7EEFDA5
:104020008120FDF7EBFDE820FDF704FE8520FDF77C
:10403000E5FD0020FDF7E2FD7820FDF7DFFDCB2058
:10404000FDF7F8FD3920FDF7D9FD2C20FDF7D6FD51
:104050000020FDF7D3FD3420FDF7D0FD0220FDF751
:10406000CDFDF720FDF7E6FD2020FDF7C7FDEA2096
:10407000FDF7E0FD0020FDF7C1FD0020FDF7BEFDCE
:10408000B120FDF7D7FD0020FDF7B8FD1B20FDF79F
:10409000B5FDB620FDF7CEFD0A20FDF7AFFDA2204D
:1040A000FDF7ACFDC020FDF7C5FD1020FDF7A6FD16
:1040B000C120FDF7BFFD1020FDF7A0FDC520FDF7D5
:1040C000B9FD4520FDF79AFD1520FDF797FDC720A6
:1040D000FDF7B0FD9020FDF791FD3620FDF7AAFD1C
:1040E000C820FDF78BFDF220FDF7A4FD0020FDF7B1
:1040F00085FDB020FDF79EFDC220FDF77FFDB620B7
:10410000FDF798FD0A20FDF779FDA720FDF776FD64
:104110002720FDF773FD0420FDF770FD2A20FDF731
:1041200089FD0020FDF76AFD0020FDF767FD0020F6
:10413000FDF764FDEF20FDF761FD2B20FDF77AFD13
:104140000020FDF75BFD0020FDF758FD0120FDF785
:1041500055FD3F20FDF752FDF620FDF76BFD0120D8
:10416000FDF74CFD0020FDF749FD0620FDF746FD5B
:104170002C20FDF75FFDC820FDF7AAFD2620FDF7E6
:1041800059FD0120FDF73AFDE020FDF753FD0F201A
:10419000FDF734FD2920FDF731FD2420FDF72EFD2C
:1041A0000C20FDF72BFD0E20FDF728FD0920FDF763
:1041B00025FD4E20FDF722FD7820FDF71FFD3C2058
:1041C000FDF71CFD0920FDF719FD1320FDF716FD75
:1041D0000520FDF713FD1720FDF710FD1120FDF759
:1041E0000DFD0020FDF70AFDE120FDF723FD002075
:1041F000FDF704FD1620FDF701FD1B20FDF7FEFC79
:104200000420FDF7FBFC1120FDF7F8FC0720FDF76B
:10421000F5FC3120FDF7F2FC3320FDF7EFFC4220E6
:10422000FDF7ECFC0520FDF7E9FC0C20FDF7E6FCB2
:104230000A20FDF7E3FC2820FDF7E0FC2F20FDF726
:10424000DDFC0F20FDF7DAFC1120FDF7F3FCC820A0
:10425000FDF73EFD2920FDF7EDFCBDE808402C20D0
:10426000FDF7E8BC08B5FDF7B9FC0321D320FDF745
:10427000FDFC80B208BD10B5C4B202220321204665
:10428000FDF762FC0A20FDF7A7FC2046002203216F
:10429000FDF75AFCBDE810400220FDF79DBC38B583
:1042A0000446E4B2FDF74EFC00212046FDF764FC15
:1042B000012105462046FDF75FFC40EA052080B25B
:1042C00038BD10B5C4B240212046FDF755FC0306A9
:1042D00007D54C212046FDF74FFC003818BF0120C0
:1042E00010BD01224B212046FDF72EFC2046002266
:1042F0004B21FDF729FC0020F2E773B50423C4B27B
:104300000E461546D7210DEB03022046FDF74EFC65
:10431000019B1BBA1A0DC3F30B23328020462B805E
:1043200001224B21FDF710FC00224B212046FDF716
:104330000BFC02B070BD000010B50A4A1378984219
:1043400004460DD0517888420AD00BB141B90123FF
:10435000D454FDF7F7FB2046BDE81040FFF78BBFB4
:1043600010BD00BF501D002010B5C4B20921204669
:10437000FDF702FC40F00102D2B220460921BDE85F
:104380001040FDF7E1BB10B5C4B209212046FDF78E
:10439000F3FB092100F0FE022046BDE81040FDF7C6
:1043A000D3BB38B5C4B20D4620460A21FDF7E4FB65
:1043B00040EA0502D2B220460A21BDE83840FDF7A6
:1043C000C3BB10B50446FDF7BEFB20461F21FFF717
:1043D000E8FF2046BDE81040FFF7C6BF38B5C4B2BD
:1043E0000D4620460A21FDF7C7FB20EA0502D2B29E
:1043F00020460A21BDE83840FDF7A6BB10B50446AB
:10440000FFF7C1FF20461F21BDE81040FFF7E6BFC0
:1044100010B5C0B20C460B21FDF7AEFB204010BD1D
:104420001F21FFF7F5BF0A46C0B20B21FDF78CBB79
:104430001F21FFF7F8BF38B5C4B20D46204617213B
:10444000FDF79AFB20EA0502D2B220461721BDE80B
:104450003840FDF779BB70B5C4B20646042120464A
:10446000FDF78AFB042100F0FB0205462046FDF71C
:104470006BFB3046F021FFF7DEFF05F0F802204627
:104480000421FDF761FB492220212046FDF75CFB5A
:104490000220FDF7A1FB204601222121FDF754FB5C
:1044A00020469A224121FDF74FFB204601224A2156
:1044B000FDF74AFB204601224B21FDF745FB204634
:1044C00000224B21FDF740FB204601225621FDF73B
:1044D0003BFB204601225821FDF736FB20460122F6
:1044E0004021FDF731FB2046FF220B21FDF72CFB7D
:1044F000BDE870400220FDF76FBB0000054BD3F80C
:10450000882042F47002C3F888204FF000629A605D
:10451000704700BF00ED00E008B50B4B1A6842F48D
:1045200000721A601A6842F480621A601A6842F4D3
:1045300080721A60032000F02FF80020FDF70AFEB9
:10454000FDF7D4FB002008BD003C0240034A044BA9
:1045500011681B780B441360704700BF541D002086
:1045600078000020014B1868704700BF541D0020E0
:1045700038B50446FFF7F6FF631C1CBF054B1B78DC
:10458000054618BFE418FFF7EDFF431BA342FAD31B
:1045900038BD00BF780000200749CA6822F4E062F5
:1045A0000302120403F4E063120C134343F0BF63ED
:1045B00043F40033CB60704700ED00E0164B30B59C
:1045C000DC68C4F30224C4F10703251D042B28BFB3
:1045D0000423062D4FF0FF358CBF033C002405FA61
:1045E00003F321EA0303A54022EA0502A3400028C1
:1045F00043EA0203ACBF00F16040084A4FEA0313EC
:10460000B8BF00F00F00DBB2AABF00F56140135441
:1046100080F8003330BD00BF00ED00E014ED00E095
:10462000002807DB044A4109012300F01F008340F2
:1046300042F82130704700BF00E100E010B50446A9
:1046400050B1437903F0FF0213B90271FDF76EFB1D
:1046500001236371002010BD0120FCE710B5044662
:1046600020B390F8393003F0FF021BB980F83820EE
:10467000FDF774FB022384F83930236861681A68F7
:1046800022F440320A431A605A6BA16822F00702F2
:104690000A435A631A6CE1686FF30D020A431A6405
:1046A00000200123E06384F8393010BD0120FCE7CD
:1046B00070477047036870B55E681D68F20704466E
:1046C00014D5E90512D51A6822F480721A60C26BFB
:1046D00042F00102C26301229A60042380F839305B
:1046E000002380F83830436903B19847B20616D5E5
:1046F000AB0414D523681A6822F400521A602022F1
:104700009A60E36B43F00203E363042384F83930D7
:10471000002384F8383063690BB12046984730078E
:1047200016D5290514D523681A6822F400621A6088
:1047300008229A60E36B43F00403E363042384F8E4
:104740003930002384F8383063690BB1204698472C
:1047500072070BD56B0509D523681A6822F48062AD
:104760001A6004229A602046FFF7A2FFB00714D512
:10477000A90512D523681A6822F400721A60022271
:104780009A60E36BE363012384F83930002384F8F3
:10479000383023690BB120469847F20613D5EB0455
:1047A00011D523681A6822F480521A6010229A6088
:1047B000E36BE363012384F83930002384F8383055
:1047C0002046FFF776FF70BDF0B590F83820012A3B
:1047D00003464FF002002BD0012283F8382083F8E3
:1047E000390003EB0112D2E90740556A174F44EA3A
:1047F0000040093C012C9CBF05F07F4210434FEA6A
:1048000001161A6888BF40EA056091B9516A3940BB
:1048100001435162012C9969916103D8596A21F0D1
:104820007F4191620122002083F8392083F838000B
:10483000F0BDD16939400143D1619919012C8969D1
:1048400011619CBF25F07F451562EBE7F0FFFC008E
:104850002DE9F74FDFF8BC916C4A00230D68012465
:104860009C4004EA0506AC4340F0B7804D6803273E
:1048700005F003044FEA430807FA08FC671E012FFE
:104880006FEA0C0C34D8876807EA0C0ECF6807FA79
:1048900008F747EA0E078760476827EA060EC5F360
:1048A00000179F4047EA0E074760C76807EA0C0EEB
:1048B0008F6807FA08F747EA0E07022CC76019D17C
:1048C0004FEAD30A00EB8A0A03F0070BDAF82070EC
:1048D0004FEA8B0B4FF00F0E0EFA0BFE27EA0E0E6F
:1048E0000F6907FA0BF747EA0E07CAF8207001E0D4
:1048F000032CDAD1076804FA08F407EA0C073C43F2
:1049000015F4403F046068D000240194D9F8444075
:1049100044F48044C9F84440D9F8444023F00307E4
:1049200007F1804704F4804407F59C37019403F0B5
:10493000030C019CD7F808E04FEA8C0C0F2404FA12
:104940000CF42EEA040E324CA0424DD004F58064E3
:10495000A0424BD004F58064A04249D004F58064A5
:10496000A04247D004F58064A04245D004F580649D
:10497000A04243D004F58064A04241D004F5806495
:10498000A0423FD004F58064A0423DD004F580648D
:10499000A04214BF0A24092404FA0CF444EA0E04C9
:1049A000BC609468F74315F4801F0CBF3C4034434F
:1049B0009460D46815F4001F0CBF3C403443D460AD
:1049C000546815F4003F0CBF3C40344354601468F5
:1049D000ED0354BF3C40344314600133102B7FF48B
:1049E0003DAF03B0BDE8F08F0024D5E70124D3E745
:1049F0000224D1E70324CFE70424CDE70524CBE745
:104A00000624C9E70724C7E70824C5E7003C01409E
:104A100000000240003802400369194214BF01201F
:104A2000002070470AB1816170470904FBE74369C0
:104A300001EA030221EA030141EA02418161704770
:104A400001684B6913F480634FF0000210D06FF4DB
:104A500080634B612023026380F83D3080F83E2064
:104A6000036C80F83C2043F004030364012070478A
:104A7000184670472DE9F84606460F4691461D46F2
:104A80004FEA114A3368BAF1010F0CBF5C699C69A7
:104A900027EA0404A4B2B4FA84F46409A14501D05D
:104AA000002025E06A1CEED0FFF75CFD089BC01AD1
:104AB000A84201D8002DE5D13368BAF1010F0CBF2F
:104AC0005B699B6927EA03039BB2B3FA83F35B0933
:104AD0009945D7D100232022336386F83D2086F8FC
:104AE0003E30326C86F83C3042F0200232640120C5
:104AF000BDE8F8862DE9F04104460F461646984673
:104B00002568686927EA000080B2C0B16B695A0560
:104B100017D52B6843F400732B606FF480636B61CF
:104B200020220023236384F83D2084F83E30236C48
:104B300043F004032364002384F83C300120BDE8E3
:104B4000F081731CDDD0FFF70DFDA0EB0800B04233
:104B500001D8002ED4D123685A6927EA020292B202
:104B6000002ACDD000232022236384F83D2084F83E
:104B70003E30236C1343DDE770B504460D46164600
:104B800023685B691B0601D500201EE02046FFF765
:104B900057FFC8B96A1CF3D0FFF7E4FC801BA8429A
:104BA00001D8002DECD123685B6913F08003E7D1B5
:104BB0002022236384F83D2084F83E30226C84F860
:104BC0003C3042F020022264012070BD2DE9F04308
:104BD0001546026885B0DDE90C789946136843F400
:104BE000807313600E463B46CDF8008000224FF0E4
:104BF00001110446FFF73EFF236838B11B68DB054F
:104C000002D54FF400732364032620E006F0FE066D
:104C10001E611A4943463A462046FFF76BFFA8B982
:104C2000236803905A6903929B690393424639466D
:104C30002046039BFFF7A0FF064660B1236C042BC0
:104C400001BF2268136843F40073136001263046E5
:104C500005B0BDE8F083B9F1010F236802D1EDB2D0
:104C60001D61F4E72A0A1A61394642462046FFF7D9
:104C700083FF0028E2D12368F1E700BF02000100B2
:104C80002DE9FF479A46036815461A6842F4806288
:104C90001A601A68DDE90C7842F480721A600E46D8
:104CA0003B46CDF8008000224FF001110446FFF78B
:104CB000E1FE236838B11B68DB0544BF4FF4007385
:104CC0002364032021E05FFA86F906F0FE061E61E8
:104CD0002B4943463A462046FFF70CFFA0B923680C
:104CE00003905A6903929B690393424639462046D2
:104CF000039BFFF741FF58B1236C042B01BF2268CF
:104D0000136843F400731360012004B0BDE8F0871A
:104D1000BAF1010F23681AD1EDB242461D6139463E
:104D20002046FFF729FF02460028E5D121680B68DD
:104D300043F480730B602046CDF800803B464FF073
:104D40000111FFF797FE226860B11368B4E72A0AE1
:104D50001A61394642462046FFF70EFF0028CBD1A4
:104D60002368D9E749F001031361054943463A46F0
:104D70002046FFF7BFFE003818BF0120C5E700BF7F
:104D80000200010070B504460D46164623685B69B3
:104D90005B0701D500201EE02046FFF751FEC8B991
:104DA0006A1CF3D0FFF7DEFB801BA84201D8002D60
:104DB000ECD123685B6913F00403E7D1202223635D
:104DC00084F83D2084F83E30226C84F83C3042F078
:104DD00020022264012070BD70B504460D461646BF
:104DE00021684B6913F0400301D0002011E04A69AB
:104DF000D2060FD56FF010024A612022236384F897
:104E00003D2084F83E30236C2364002384F83C303A
:104E1000012070BDFFF7A6FB801BA84201D8002D22
:104E2000DED123685B6913F04003D9D120222363CC
:104E300084F83D2084F83E30236C1343E4E70000FF
:104E400070B5044608B9012070BD90F83D3003F0FC
:104E5000FF021BB980F83C20FCF7A2FF242384F852
:104E60003D3023681A6822F001021A601A6842F481
:104E700000421A601A6822F400421A6000F08AFEAA
:104E80003F4B65689D4294BF3E4B3F4B98428CBF61
:104E900000230123002BD6D12268394E51683B4BA9
:104EA000B0FBF3F321F03F011943B542516088BFD5
:104EB0004FF49676116A88BF734321F03F0184BF97
:104EC0004FF47A76B3FBF6F301330B431362D169E7
:104ED000431E2B4821F44F41854221F0FF0132D877
:104EE0006D0040F6FC70B3FBF5F30133034242D092
:104EF000C3F30B031943D161D4E9073011680343AD
:104F000021F0C0010B4313609168D4E9030321F43D
:104F10000341034321F0FF010B439360D4E90530C3
:104F2000D168034321F0FF010B43D360136843F0C2
:104F30000103136000202023206484F83D302063A7
:104F400084F83E0080E7A06850B905EB4505B3FB47
:104F5000F5F30133C3F30B037BB143F40043C9E71B
:104F600019206843B3FBF0F30133C3F30B0323B100
:104F700043F44043BEE70423BCE70123BAE700BF84
:104F8000A08601007F841E00FF083D0040420F0004
:104F90002DE9F743044699460C9E0F469046FFF7CD
:104FA000E1FA94F83D30202B054603D0022003B0EF
:104FB000BDE8F08300903C49192301222046FFF709
:104FC00059FD0028F2D194F83C30012BEED0206836
:104FD000012384F83C300368D9075EBF036843F0BF
:104FE00001030360036823F400630360212384F852
:104FF0003D30402384F83E30002323640A9B6362E3
:10500000BDF82C306385638D2385284BE3624246CF
:10501000CDE900654B4639462046FFF7D7FD00280D
:105020002AD00120C3E7FFF7A7FD40B1236C042B72
:1050300001BF2268136843F400731360F1E7636AE9
:1050400027681A4612F8011B39616262628D218D50
:10505000013A92B262857A69481E80B25207208571
:105060000AD548B15A783A6102336362638D013BD5
:1050700002399BB221856385238D2A46314620461D
:10508000002BD0D1FFF77EFE0028CFD12268136815
:1050900043F400731360202384F83D3084F83C000F
:1050A00084F83E0083E700BF020010000000FFFF0D
:1050B0002DE9F043044687B09946109F0D4690466F
:1050C000FFF750FA94F83D30202B064604D0022515
:1050D000284607B0BDE8F08300907A4919230122E1
:1050E0002046FFF7C7FC0028F1D194F83C30012B93
:1050F000EDD02068012384F83C300368DB075EBFF5
:10510000036843F001030360036823F40063036052
:10511000222384F83D30402384F83E30002323646A
:105120000E9B6362BDF83C306385638D2385664BBF
:10513000E3622946CDE900764B4642462046FFF71A
:105140009FFD054608B10125C2E7228D2368B2B94B
:1051500002905A6902929A690292029A1A6842F47B
:1051600000721A60DFF86481238D002B2CD120227D
:1051700084F83D2084F83C3084F83E30A8E7012ACA
:105180000AD11A6822F480621A6003905A69039265
:105190009A690392039AE1E7022A0ED11A6822F46F
:1051A00080621A601A6842F400621A6004905A69B8
:1051B00004929B690493049BD4E705905A69059275
:1051C0009B690593059BCDE7032B56D8012B15D181
:1051D000324639462046FFF7FFFD0028B3D1236849
:1051E0001A69636A1A70636A01336362238D013B33
:1051F0002385638D013B9BB26385B5E7022B009647
:105200003B464FF000024146204619D1FFF732FCE1
:10521000002898D123681A6842F400721A601A694B
:10522000636A1A70626A531C6362238D013B238593
:10523000638D013B9BB2638523681B695370D2E782
:10524000FFF718FC024600287FF47DAF2368196839
:1052500021F4806119601969636A1970636A013306
:105260006362238D013B2385638D013B9BB2638584
:10527000414600963B462046C8E73246394620461E
:10528000FFF7AAFD00287FF45EAF23681A69636AFE
:105290001A70628D616A013A92B24B1C6285226873
:1052A0006362238D5069013B9BB2400723857FF5E4
:1052B0005BAF032B02BF136823F480631360136991
:1052C0004B7090E7020010000000FFFF0400010097
:1052D00010B590F83D30202BDCB216D1242380F895
:1052E0003D3003681A6822F001021A605A6A22F0FF
:1052F00010025A625A6A114359621A6842F0010256
:105300001A6080F83D40002010BD0220FCE730B557
:1053100090F83D30202BDCB216D10268242380F8AF
:105320003D30136823F001031360556A4FF6F073A4
:105330002B400B439BB25362136843F0010313608D
:1053400080F83D40002030BD0220FCE70068D2011B
:1053500084328318F0B5C7685D684C680E6805F440
:1053600070455D60C56806F1010CC5F30B45C7F3D8
:105370000B472744654445EA07455D60C768CD682B
:10538000C7F30A072F449D6805F470459D60D0F867
:105390000CC08D68CCF30A0C0135654445EA07451D
:1053A0009D601D69D1F810C08F6925F007051D614A
:1053B000C3F810C091F8305045EA076591F8317094
:1053C00045EA072591F8327045EA07459D615D6918
:1053D00025F0FF055D614D695D61DD6925F4E065DE
:1053E00025F00705DD61D1E907573D43DD61BCF1DB
:1053F000070F4D6A9D629CBF0D4D15F80C70DD6A5C
:1054000005F0E025DD6288BF01278D6AC96AA41B0B
:105410007C437D43033444EA0544DC621C6B6FF338
:105420000A041C631963835843F001038350F0BDE1
:105430008052020838B5044600284ED090F8A130BA
:1054400003F0FF021BB980F8A020FCF705FD022342
:1054500084F8A13023689A6922F070429A61D4E9F5
:1054600001200243E06899690243206902430A432C
:105470009A61D4E9051242EA01429A60D4E907121E
:1054800042EA0142DA60D4E9091242EA01421A61B1
:10549000D4E90B1242EA01425A61DA6A94F8350003
:1054A00094F8361002F07F42DA62DD6A94F8342014
:1054B0002A4342EA002242EA0142DA625A6B42F08F
:1054C00006025A639A6942F001029A6100200123A0
:1054D000C4F8A40084F8A13038BD0120FCE770476F
:1054E0007047036870B59E6B5D6B7207044614D5F8
:1054F000690712D55A6B22F004025A630422DA6358
:10550000D0F8A43043F00103C0F8A430002380F8A1
:10551000A12080F8A030FFF7E2FFB20716D5AB0755
:1055200014D523685A6B22F002025A630222DA630E
:10553000D4F8A4301343C4F8A430042384F8A13071
:10554000002384F8A0302046FFF7C9FFF00710D5EC
:10555000E9070ED523685A6B22F001025A63012233
:10556000DA63002384F8A12084F8A0302046FCF7F9
:1055700051F8320711D52B070FD523685A6B22F04B
:1055800008025A630822DA63012384F8A130002359
:1055900084F8A0302046FFF7A3FF70BD2DE9F0414D
:1055A00090F8A030012B06460F4694464FF00200BB
:1055B0001FD04FF0010886F8A08086F8A10034249F
:1055C0000D4604FB02640FCD38340FC40FCD0FC459
:1055D0000FCD0FC42B682360304662463946FFF773
:1055E000B5FE33680020C3F8248086F8A18086F8D1
:1055F000A000BDE8F081000090F8A020012A034639
:105600004FF0020012D01A6883F8A100506B20F00E
:105610000100506306480164516B41F00101516380
:105620000020012283F8A12083F8A000704700BF6A
:105630000068014037B500230193184B184D1A6CD0
:1056400042F080521A641B6C03F080530193019B5B
:10565000144B01221A64FEF785FF04466B68DA03D7
:105660000BD5104B0E4D01225A64FEF77BFF04460A
:105670006B689B030AD5002006E0FEF773FF001B52
:10568000B0F57A7FEAD9032003B030BDFEF76AFF98
:10569000001BB0F57A7FEBD9F5E700BF0038024078
:1056A0000070004000000E422DE9F341044640B373
:1056B0000368DE0710D423689D075BD423681907AD
:1056C00000F19D8023685A0700F1BD80A369002B7B
:1056D00040F0248100202CE08D4B9A6802F00C02EF
:1056E000042A07D09A6802F00C02082A0BD15B68E2
:1056F000590208D5864B1B689A03DCD56368002BDA
:10570000D9D1012015E06368814DB3F5803F13D1F5
:105710002B6843F480332B60FEF724FF7C4E054654
:1057200033689B03C7D4FEF71DFF401B6428F7D9DD
:10573000032002B0BDE8F081B3F5A02F04D12B689F
:1057400043F480232B60E3E72A6822F480322A6046
:105750002A6822F480222A60002BDDD1FEF702FFA6
:1057600006462B689F03A6D5FEF7FCFE801B642827
:10577000F7D9DDE7664B9A6812F00C0F07D09A68EC
:1057800002F00C02082A11D15B685D020ED4604A57
:105790001368990702D5E368012BB2D11368216918
:1057A00023F0F80343EAC103136087E7E268594B2B
:1057B000B2B101221A60FEF7D5FE554D06462B68A0
:1057C0009B0707D52B68226923F0F80343EAC2033D
:1057D0002B6073E7FEF7C6FE801B0228EFD9A7E710
:1057E0001A60FEF7BFFE4A4E054633689F077FF5F5
:1057F00065AFFEF7B7FE401B0228F6D998E762694D
:10580000444B82B10122C3F8802EFEF7ABFE404E1E
:105810000546736F9B073FF555AFFEF7A3FE401B90
:105820000228F6D984E7C3F8802EFEF79BFE384E97
:105830000546736F9F077FF545AFFEF793FE401B4C
:105840000228F6D974E7324B1A6C12F0805228D134
:1058500001921A6C42F080521A641B6C03F0805360
:105860000193019B01272C4D2B68D8051BD5A368FC
:10587000274D012B27D12B6F43F001032B67FEF738
:1058800071FE234E054641F28838336F9A0739D5A9
:10589000002F3FF41BAF1E4A136C23F08053136498
:1058A00014E70027DFE72B6843F480732B60FEF7D3
:1058B00059FE06462B68D905D9D4FEF753FE801B46
:1058C0000228F7D934E7052B04D12B6F43F00403EA
:1058D0002B67D0E72A6F22F001022A672A6F22F095
:1058E00004022A67002BCAD1FEF73CFE41F2883839
:1058F00006462B6F9B07CBD5FEF734FE801B404539
:10590000F7D915E7FEF72EFE401B4045BDD90FE73E
:10591000003802400000474200700040374DAA683E
:1059200002F00C02082A3ED0022B354B4FF0000249
:105930001A662BD1FEF716FE06462B6899011FD476
:10594000D4E907321343626A43EA8213E26A43EA04
:105950000263A26A5208013A43EA02436B60284B91
:10596000264D01221A66FEF7FDFD04462B689A01BA
:105970003FF5B0AEFEF7F6FD001B0228F6D9D7E6DC
:10598000FEF7F0FD801B0228D7D9D1E6FEF7EAFD2D
:1059900004462B689B017FF59DAEFEF7E3FD001BDF
:1059A0000228F6D9C4E6012B3FF4ABAE6B68E2697E
:1059B00003F4800191427FF4A4AE216A03F03F0218
:1059C0008A427FF49EAE616A47F6C0721A40B2EB1B
:1059D000811F7FF496AEA26A520803F44031013A67
:1059E000B1EB024F7FF48DAEE26A03F07063B3EB6C
:1059F000026F14BF012000209BE600BF0038024068
:105A000000004742134908B58B6803F00C03042BD0
:105A10001CD0082B1CD14A684B68496813F48003DA
:105A200014BF0D480D48C1F3881118BF002302F0C0
:105A30003F02A1FB0001FAF77BFC064B5B68C3F356
:105A4000014301335B00B0FBF3F008BD0248FCE703
:105A50000248FAE70038024000127A000024F400FD
:105A60002DE9F0410D46044610B90120BDE8F08152
:105A7000434B1A6802F00F028A4228D321688F072D
:105A80002DD4C80740D43E4B1A6802F00F02AA4238
:105A900065D8226851076BD4130707D5394A2169A5
:105AA000936823F4604343EAC1039360FFF7AAFFBE
:105AB000344B354A9B68C3F30313D35CD840334B54
:105AC0001860334B1868FCF745FB0020CEE7CAB2DC
:105AD0001A701B6803F00F038B42C6D1CEE7294B27
